:020000040000FA
:1000000002002F00000080FBE47921780EB8000286
:100010008004F709D8FC78109000387A04BA0002FE
:100020008007E493A3F608DAF91207521200037569
:10003000D0007581BF02000800002041E9799EC60A
:1000400008CAC608CBC608CCC6C370207996CACBEE
:10005000CC7019798ECBCC70137986CC700EF98068
:100060002ACA33CACB33CBCC33CC331930E7F2CCEA
:10007000CBCA3350147004EA30E00DE4CA3ACACB5C
:100080003BCBCC3CCC500209C3E913C6CC1823139C
:10009000C6CB18C6CA18C6F922E62618461846184E
:1000A0004622E72719471947194722E608460870EC
:1000B00009E626087005E633F4220822E709470915
:1000C0007009E727097005E733F4220922E608469C
:1000D00008C3134608336002E633F422E7094709F0
:1000E000C3134709336002E733F4221200CD7004D2
:1000F000181818221200DC700D74FFF61819F61883
:1001000019F61819F622E7548066F6120099700F56
:100110001200A270F014F608F608F608F680D11264
:1001200000A2700CF608F608768008E6447F80ECA2
:100130001200BC700C1200AB60BFE65480F6E48085
:10014000BB1200AB700519191980A5E869700C760F
:100150003F18768018F618F6E8F922E6CDC0E018C8
:10016000ECC0E0E633CD33CDD313F6E719FCE71945
:100170001933CC33C3947F400ECD9D502408E654F0
:1001800080F6E418F6800FF4043D14501408E64499
:100190007FF6187680E418F618F6D0E0FCD0E0FD83
:1001A00022CCD313CCFD18E4C6CBC0E018E4C6CAF9
:1001B000C0E00808ED08C633E613F618E433C67548
:1001C000F003C3CA97CA09CB97CB199C40047D089A
:1001D000802EBD000302029416B6FF05060608161F
:1001E00018C3CA33CACB33CB33CA27CA09CB37CBE0
:1001F000193CC37D08803E187D0820E75CC633C6E5
:10020000CA33CACB33CB33DDF1D5F0EB30E77BCA51
:1002100097CA09CB974ACB199C406F4B7025E620B3
:10022000E0218066187D08C3CA97CA09CB97CB190D
:100230009CD3C633C6CA33CACB33CB3350C9DDE7F0
:10024000D5F0E1D3E4C636C608C636C608C636C6FB
:1002500008C636C61818188031C3CA97CA09CB9782
:10026000CB199CB34097C633C6CA33CACB33CB3302
:10027000DD34D5F02EC6A2E0C640C8CA27CA09CBD5
:1002800037194A70BECB3CB480B90808E63308E69B
:1002900033601F181818D0E0FAD0E0FBD0E0FCD093
:1002A000E0FD22187D08CA27CA09CB37CB193CD3F9
:1002B000808013F618E4B67F11F618B6FF0EF61814
:1002C000C60470D20808768080CAF618F618F68040
:1002D000C5E7F60809E7F60809E7F60809E7F62290
:1002E000C9C0E0E7F60809E7F60809E7F60809E7F4
:1002F000F6D0E0F922C3E498F8E499F912033680C5
:1003000026C3E49AFAE49BFBE920E7E9120336E40A
:1003100098F8E499F922C3E498F8E499F9120336BD
:10032000E498F8E499F9C3E49AFAE49BFB22EB2001
:10033000E7CFE920E7E0B90010BB0008E88AF084C5
:10034000F8AAF022E4FBC8FA22EB70227B10C83333
:10035000C8C933C9335007C39AC3DBF280069A5029
:10036000012ADBEAC833F4C8C933F4C9FA2275F0AC
:1003700008E4C833C8C933C933C99AC99B5004C9F2
:100380002AC93BD5F0ECFBC833F4C8E4C9FA22E42F
:1003900073D083D082CEC0E0EFC0E0C0207808E602
:1003A00008C0E0DEFAE473C0D074072FD0D0F8D0D4
:1003B000E0F618DFFAD020D0E0FFD0E0FE22EEC059
:1003C000E0E9FE74052EF8EAF608EBF67A2DEEF970
:1003D00074052EF8868208868312038FE97A28EE48
:1003E000F974052EF8868208868312038FE9D0E01F
:1003F000FE22EEC0E0EFC0E0C008E9FE7900740420
:100400002EF8E9F674032EF8E9F674022EF8E9F6F0
:1004100074012EF8E9F6EEF8E9F67A2DEEF9740596
:100420002EF8868208868312038FE97A2AEEF97401
:10043000052EF8868208868312038FE97A2EEEF95C
:1004400074052EF8868208868312038FE97A29EED6
:10045000F974052EF8868208868312038FE97A2DB7
:10046000EEF974052EF8868208868312038FE97AE6
:100470002BEEF974052EF8868208868312038FE925
:100480007A2CEEF974052EF8868208868312038F83
:10049000E9702B7A2CEEF974052EF8868208868393
:1004A00012038FE960ED7A2CEEF974052EF886823E
:1004B00008868312038FE970ED750800807079015A
:1004C0000205637A2CEEF974052EF886820886837D
:1004D00012038FE960EDEE2508F8E6C333C0E0EEC5
:1004E0002508F8D0E0F67A2BEEF974052EF886820E
:1004F00008868312038FE97A2CEEF974052EF886AC
:100500008208868312038FE9601BEE2508F8E6D285
:10051000E0F67A2CEEF974052EF8868208868312AE
:10052000038FE970ED0FEFC3940840970508E508C5
:10053000C3940550047F0080ED74032EF8E6FB742D
:10054000022EF8E6FA74012EF8E6F9EEF8E6292A0A
:100550002BF974042EF8E6697003E97004790180C0
:10056000027900D008D0E0FFD0E0FE227408120328
:1005700091E9FC7E007F00790074032CF8E6F50910
:1005800074022CF8E6F50874012CF8E6FDECF8E6A8
:100590002D25082509F974042CF8E6697003E97023
:1005A00005790102066DECF8E6F87900E84EFEE9FF
:1005B0004FFFE4CEFF74012CF8E6F87900E84EFE18
:1005C000E94FFF8E0C8F0DE4F50EF50F780C12003D
:1005D0003C791078081202D1780C79081200EBEA05
:1005E000F8740C1202E07E007F0074022CF8E6F82A
:1005F0007900E84EFEE94FFFE4CEFF74032CF8E6E5
:10060000F87900E84EFEE94FFFEE5400F8EF548011
:10061000F9E849603374FF5EFE747F5FFF8E088FD8
:1006200009E4F50AF50B780812003CC50BB2E7C5E2
:100630000B7910780C1202D17808790C1200EBEBD0
:10064000F874081202E080238E0C8F0DE4F50EF58D
:100650000F780C12003C791078081202D1780C79CE
:10066000081200EBEBF8740C1202E079007F08022C
:1006700003A77402120391E9FCEAFEEBFD7A007B0A
:1006800000790074032CF8E6F50974022CF8E6F5FD
:100690000874012CF8E6FFECF8E62F25082509F987
:1006A00074042CF8E6697003E97005790102074DBE
:1006B000ECF8E6F87900E84AFAE94BFBE4CAFB7487
:1006C000012CF8E6F87900E84AFAE94BFBEAF8EB86
:1006D000F97A0A7B0012032EE8FAE9FBEEF8EAF653
:1006E00008EBF67A007B0074022CF8E6F87900E853
:1006F0004AFAE94BFBE4CAFB74032CF8E6F87900EC
:10070000E84AFAE94BFBEA5400F8EB5480F9E8496F
:10071000602374FF5AFA747F5BFBC3E49AF8E49B8E
:10072000F97A0A7B0012032EE8FAE9FBEDF8EAF603
:1007300008EBF68016EAF8EBF97A0A7B0012032E32
:10074000E8FAE9FBEDF8EAF608EBF679007F020239
:1007500003A7E581240CF5817AE87B077921120350
:10076000BE7AE87B0779281203BE79211203F2E9E9
:1007700079281203F2E978218690782986A0E5810C
:1007800024F9FBE58124F5FA792112056CE9E5816C
:1007900024F9FBE58124F5FA792812056CE9E58155
:1007A00024FFFBE58124FDFA7921120672E9E58137
:1007B00024FFFBE58124FDFA7928120672E980FE08
:1007C000007A02795F782B18E870FC19E970F81A42
:1007D000EA70F4227914787118E870FC19E970F85D
:1007E000220074931470FD22EEC0E0EFC0E0E9FE39
:1007F000EAFFEF24D8601414601A14601C14601E01
:1008000014602014603514604280507900D0E0FFFD
:10081000D0E0FE221207C080F21207D480ED12074A
:10082000E180E874216E7007A2B0E433F980DE74D1
:10083000286E70D7E5B05402F980D274216E700230
:10084000D2B074286E70C4D2B180C074216E7002B0
:0F085000C2B074286E70B4C2B180B079FF80AEB0
:040000050000002FC8
:00000001FF
