:100D73008B148A158916AB1AAA1BA91CC003C002BF
:100D8300C001AB14AA15A91690001D120579AB1763
:100D9300AA18A919C003C002C001AB14AA15A91649
:100DA30090001A120579AB1DAA1EA91FC003C00229
:100DB300C001AB14AA15A916900020120579AB1433
:100DC300AA15A91690003BE4120426E4F538F5377A
:100DD30075367F753543FFFEFDFC120C70AB14AA0C
:100DE30015A91690002F120525000000C8AD2D127D
:100DF3001017AB14AA15A91685273885263785251C
:100E030036852435852B3C852A3B85293A85283927
:100E1300852C3DAF23AE22AD21AC20120B22121143
:100E23002DAB14AA15A91690002F1204F5C3EF9B3E
:100E3300FFEE9AFEED99FDEC98FCAB14AA15A916EA
:060E43009000230204D11F
:0E0B22008B2E8A2F89308F348E338D328C319A
:100B3000E4F541F540F53FF53EFFFEFDFCAB34AA80
:100B400033A932A8311202BC5003020C6FE4FFFE3D
:100B5000FDFCAB38AA37A936A8351202BC500302F7
:100B60000C6FE4FFFEFDFCAB3CAA3BA93AA839128E
:100B700002BC5003020C6FAB2EAA2FA93090003C90
:100B8000E53D120426AF34AE33AD32AC311204B7BA
:100B9000AF38AE37AD36AC35AB2EAA2FA9309000AA
:100BA000041204D1AF3CAE3BAD3AAC399000081210
:100BB00004D190002F120487E412033AE4FBFA797F
:100BC0007A784412021F8F418E408D3F8C3EAF34A5
:100BD000AE33AD32AC31AB2EAA2FA93090000C123F
:100BE00004D1AF41AE40AD3FAC3EAB38AA37A936D9
:100BF000A835120116AB2EAA2FA9309000101204AE
:100C0000D1AB41AA40A93FA83EAF3CAE3BAD3AAC08
:100C10003912021FAB2EAA2FA9309000141204D152
:100C20009000181203F964017045AB2EAA2FA93069
:100C300090000C120487120329AB2EAA2FA9309022
:100C4000000C1204D190000C120487120329AB2E61
:100C5000AA2FA9309000101204D190000C12048722
:0F0C6000120329AB2EAA2FA9309000141204D131
:010C6F002262
:0E09CD008B148A1589168F1A8E198D188C17A7
:1009DB00E4F51EF51DF51CF51BFFFEFDFCAB1AAA7D
:0E09EB0019A918A817D31204565003020B21A5
:1009F900AB14AA15A91690002F120487E412033A22
:100A0900C004C005C006C007AF1AAE19AD18AC17AF
:100A1900E412033AD003D002D001D00012021F8F92
:100A2900228E218D208C1FAB14E5162410F9E43594
:100A390015FAC003C002C001120467AB22AA21A99A
:100A490020A81F120116D001D002D0031204B7AB9F
:100A590014E5162414F9E43515FAC003C002C001DF
:100A6900120467AB22AA21A920A81F12021FD001D4
:100A7900D002D0031204B7AF1AAE19AD18AC17AB38
:100A890014AA15A91690002F1204D190002F120450
:100A990087E412033AE4FBFA797A784412021F8F49
:100AA9001E8E1D8D1C8C1BAB14AA15A9161204676A
:100AB90090000C1204D1900004120487AB1EAA1DE9
:100AC900A91CA81B120116AB14AA15A9169000108F
:100AD9001204D1900008120487AB1EAA1DA91CA8F4
:100AE9001B12021FAB14AA15A9169000141204D1E7
:100AF90012112DAB14AA15A91690002F1204F5C3D3
:100B0900EF9BFFEE9AFEED99FDEC98FCAB14AA154C
:080B1900A9169000231204D17B
:010B210022B1
:100C70008B2E8A2F89308F348E338D328C31AF3862
:100C8000AE37AD36AC35AB34AA33A932A831120237
:100C9000BC4003020D72AF34AE33AD32AC31AB2E7B
:100CA000AA2FA9309000331204D1AF38AE37AD3639
:100CB000AC359000371204D190003B1203F9700359
:100CC000020D72AB2EAA2FA93090001D12054912F9
:100CD0000467AB2EAA2FA9309000371204F5120238
:100CE000BC500BAB2EAA2FA930900037802BAB2E17
:100CF000AA2FA93090001D120549120467AB2EAA35
:100D00002FA9309000331204F51202BC6017401571
:100D1000AB2EAA2FA93090003312048790001D1229
:100D200005491204B7AB2EAA2FA930900037120440
:100D3000879000271204F51202BC600D400BAB2E09
:100D4000AA2FA9309000378020AB2EAA2FA930906F
:100D500000331204879000271204F51202BC5012CF
:100D6000AB2EAA2FA93090003312048790002712CF
:030D700004D12289
:0610C6008B148A15891647
:1010CC00BD01047F0180027F008F17E5176011AB13
:1010DC0014AA15A91690003B1203F97003120F9F66
:0E10EC00AB14AA15A91690003BE517020426C6
:100F9F008B188A19891A90001D120549120467AB24
:100FAF0018AA19A91A9000271204D190001A120535
:100FBF0049120467AB18AA19A91A90002B1204D171
:100FCF009000371204879000271204F51202BC60BC
:100FDF000D400BAB18AA19A91A9000378020AB1837
:100FEF00AA19A91A9000331204879000271204F54A
:100FFF001202BC5012AB18AA19A91A90003312048E
:08100F00879000271204D12292
:101017008D318B2E8A2F893090003B1203F960495E
:101027009000181203F96531603F90000C12048795
:10103700120329AB2EAA2FA93090000C1204D190CD
:101047000010120487120329AB2EAA2FA930900093
:10105700101204D1900014120487120329AB2EAA90
:101067002FA9309000141204D1AB2EAA2FA93090CB
:071077000018E53102042618
:060705008B148A15891611
:10070B00E4F51AF519F518F51790003B1203F9707B
:10071B0002FF2212112D8F1E8E1D8D1C8C1BAB14F4
:10072B00AA15A9169000231204F5C3E51E9BF5220A
:10073B00E51D9AF521E51C99F520E51B98F51FABF6
:10074B0014AA15A91690002F120487AB22AA21A96F
:0C075B0020A81FC312045650030209CA54
:10076700AB14AA15A91690001A1205491204678F2F
:10077700268E258D248C23AB14AA15A9169000204C
:10078700120549120467AB26AA25A924A82312003B
:10079700218F2A8E298D288C27AB14AA15A916908C
:1007A700002B1204F5AF26AE25AD24AC2312002191
:1007B7008F2E8E2D8D2C8C2BAB14E5162427F9E468
:1007C7003515FAC003C002C001120467C004C00592
:1007D700C006C007AA15A916900010120487AB2AF5
:1007E700AA29A928A827120116A804A905AA06ABB1
:1007F70007D007D006D005D004120025D001D002BB
:10080700D0031204B7AB14AA15A91690003C120323
:10081700F97049E92427F9E43AFAC003C002C00194
:10082700120467C004C005C006C007AA15A9169020
:10083700000C120487AB2EAA2DA92CA82B12011687
:10084700A804A905AA06AB07D007D006D005D0048F
:10085700120021D001D002D0031204B7AB14AA159D
:10086700A9169000371204879000271204F5120288
:10087700BC600D400BAB14AA15A916900037802059
:10088700AB14AA15A91690003312048790002712FB
:1008970004F51202BC5012AB14AA15A91690003326
:1008A7001204879000271204D1AB14AA15A9169039
:1008B700003C1203F9601B90000C120487AB2AAAB4
:1008C70029A928A8271201168F1A8E198D188C1797
:1008D7008009E4F51AF519F518F517AB1AAA19A93D
:1008E70018A817C000C001C002C003AB14AA15A9FD
:1008F70016900014120487AB2EAA2DA92CA82B1230
:100907000116C004C005C006C007AB14AA15A91676
:10091700900027120487D003D002D001D000120024
:1009270021D003D002D001D0001200258F1A8E19D2
:100937008D188C17AB14AA15A916900037120487C7
:10094700AB1AAA19A918A8171202BC600D400BAB65
:1009570014AA15A9169000378022AB14AA15A91658
:10096700900033120487AB1AAA19A918A817120204
:10097700BC5014AB14AA15A9169000331204878F24
:100987001A8E198D188C17AF1AAE19AD18AC17AB94
:1009970014AA15A91690001D1205491204B7AF260F
:1009A700AE25AD24AC23AB14AA15A91690002B12C3
:1009B70004D1AF1EAE1DAD1CAC1B9000231204D199
:0309C7007F01228B
:0209CA007F00AC
:0109CC002208
:10111400044500000000014D0002490000024B009C
:0811240000014200024300003B
:100E4900E4F513F5127511487510435389F0438978
:100E590001758A18758CFCC28DD28CD2A953890F61
:100E6900438920758B06758D06C28FD28ED2ABD27F
:100E790088D2A8D2AFF517751800751908F51A7533
:100E89001B00751C0CF51D751E00751F107523338D
:100E99007522337521B375203F7527CD7526CC751D
:100EA90025CC75243DF52BF52AF529F528752C0156
:100EB900F52DFB7A00794E120D737B007A00794E7D
:100EC900120F9F7B007A00794E7D011210C67B00BC
:100ED9007A00794E7FB87E0B7D007C001209CDAC7B
:100EE90049AD4AE412033F8F0B8E0A8D098C087BAA
:100EF900007A00794E120705BF01E4AF0FAE0EADBF
:0A0F09000DAC0C1203788F4D80D55B
:09112D00AF48AE47AD46AC4522C7
:0300030002000EEA
:0D000E00C0E0054CE54C7002054BD0E0321F
:03001B000210FAD6
:0410FA00C0E0C0D0C2
:1010FE00E54DC39542400553A0FE800343A0010574
:01110E00429E
:05110F00D0D0D0E03259
:03000B0002107E62
:04107E00C0E0C0D03E
:10108200758A18758CFC0544E54470020543E548F1
:101092002401F548E43547F547E43546F546E4359D
:1010A20045F545E544B4E817E543B403127543003A
:0F10B200754400854B49854C4A754B00754C00C1
:0510C100D0D0D0E032A8
:10001E000203E4E86480F8E933E83360110460F029
:10002E00ED33EC337009E8FCE9FDEAFEEBFF220448
:10003E0060DED3EB9FEA9EE99DE8C2E78CF0C2F743
:10004E0095F0400CE8CCF8E9CDF9EACEFAEBCFFB0F
:10005E001203AF85D0F05804700320D5B3E80470B6
:10006E00075002B2D50203EE92D5EC0460F7E4CC51
:10007E00C0E0C398F8603B94186008400DD0E0FBD8
:10008E000203C6E4FBFAC9FC8028E830E406E4C9A2
:10009E00FBE4CAFCE830E305E4C9CACBFCE854072C
:1000AE006010F8C3E913F9EA13FAEB13FBEC13FC37
:1000BE00D8F130F52FC3E49CFCEF9BFFEE9AFEEDDA
:1000CE0099FDD0E0FBEF4E4D4C701222DB03020384
:1000DE00EBEC2CFCEF33FFEE33FEED33FDED30E7B2
:1000EE00EB0203C6EF2BFFEE3AFEED39FDD0E0FB3F
:1000FE0050130BBB00030203EEED13FDEE13FEEFE8
:08010E0013FFEC13FC0203C611
:10011600EC4D6011E8497017ED33EC3304600DE4E3
:10012600FCFFFEFD22E933E8330470F80203E41213
:1001360003AF58046009E4CC248150062850090214
:1001460003EE2840030203EBC0E0EB4A7044B9809B
:1001560006D0E0FB0203DAEF4E701CBD8008EBFF11
:10016600EAFEE9FD80EBE98DF0A4FEE5F00201FF71
:10017600E9CDF9EAFEEBFFEF89F0A4FCE5F0CE89C4
:10018600F0A42EFFE435F0CD89F0A42DFEE435F081
:100196008067EF4E7005BD80D780C3EF8BF0A4ACAF
:1001A600F0EE8BF0A42CFCE435F0F8EF8AF0A42CEA
:1001B600E5F038FCE433CB8DF0A42CFCE5F03BF8FD
:1001C600EE8AF0A42CFCE5F038F8E433CF89F0A4ED
:1001D6002CFCE5F038CF3400CE89F0A42FFFE5F0F3
:1001E6003EFEE433C98DF0A42EFEE5F039CD8AF04B
:1001F600A42FFFE5F03EFEE43DFD33D0E0FB5007C3
:100206000BBB000F0203EEEC2CFCEF33FFEE33FECC
:06021600ED33FD0203C6FA
:10021C000203EEEC5D046005E8590470030203E48C
:10022C001203AF580460F6EC4860F2EC7004FDFE6B
:10023C00FF22C860DB2481C85009C39860025006B5
:10024C000203EB9850CAF582E9294B4A7005AB8240
:10025C000203DA75F0007C1A7880C3EF9BEE9AEDFE
:10026C0099400DC3EF9BFFEE9AFEED99FDE842F02D
:10027C00DC23ACF0D0E0FFD0E0FED0E0FDAB822080
:10028C00E7101BEB60BAEC2CFCEF33FFEE33FEED0A
:10029C0033FD0203C6E803F830E705C0F075F00043
:1002AC00EF2FFFEE33FEED33FD40B830E7C280AAEE
:1002BC0074F8CC6480CCC86480C8F582046043C3F5
:1002CC00EB9FF5F0EA9E42F0E99D42F0E89C45F088
:1002DC0060305018E5825FFFE582F42B5582FB50AD
:1002EC00210ABA001D09B90019088016E5825BFBCA
:1002FC00E582F42F5582FF50090EBE00050DBD009E
:10030C00010CC3EB9FF5F0EA9E42F0E99D42F0E848
:0D031C009C45F06007CC4820E701B3EC22BF
:10032900ED33EC33600A047003BD8004ECB2E7FCE2
:0103390022A1
:10033A0075F020800E75F010800575F0087D007E3E
:10034A00007F003392D530D503120448EC334010B5
:10035A00EF33FFEE33FEED33FDEC33FCD5F0ED2247
:0E036A00E5F0247EA2D513CC92E7CDCEFF2283
:10037800EDD2E7CD33EC3392D524814006E4FFFE7D
:10038800FDFC22FCE4CFCECDCC24E0501174FF80DC
:10039800EDC3CC13CCCD13CDCE13CECF13CF047079
:0703A800F030D5DE0204482D
:1003AF00E9D2E7C933E833F892D5EDD2E7CD33EC94
:0703BF0033FC5002B2D5220D
:1003C600EC30E7100FBF000C0EBE00080DBD000498
:1003D6000BEB6014A2D5EB13FCED92E7FD2274FF44
:1003E600FCFDFEFF22E480F8A2D574FF13FC7D809D
:0303F600E480EFB1
:03000000020F13D9
:0C0F1300787FE4F6D8FD75818A020F5A41
:1003F900BB010CE58229F582E5833AF583E02250B9
:1004090006E92582F8E622BBFE06E92582F8E22202
:0D041900E58229F582E5833AF583E493221C
:10042600F8BB010DE58229F582E5833AF583E8F00C
:10043600225006E92582C8F622BBFE05E92582C8B8
:02044600F222A0
:0E044800C3E49FFFE49EFEE49DFDE49CFC22C5
:10045600EB9FF5F0EA9E42F0E99D42F0E89C45F0FC
:010466002273
:10046700BB010789828A830205DE5005E9F8020588
:10047700D2BBFE05E9F80205EA89828A830205F6FE
:10048700BB010DE58229F582E5833AF5830205DE96
:100497005007E92582F80205D2BBFE07E92582F855
:1004A7000205EAE58229F582E5833AF5830205F636
:1004B700BB010789828A830206485005E9F80206CC
:0A04C7003CBBFE05E9F802065422D2
:1004D100BB010DE58229F582E5833AF583020648E1
:1004E1005007E92582F802063CBBFE07E92582F8A0
:0404F1000206542289
:1004F500BB010DE58229F582E5833AF583020613F2
:100505005007E92582F8020606BBFE07E92582F8B1
:1005150002061FE58229F582E5833AF58302062C5A
:10052500BB010DE58229F582E5833AF5830206795B
:100535005007E92582F8020660BBFE07E92582F827
:040545000206AA22DE
:10054900BB010DE58229F582E5833AF5830206D5DB
:100559005007E92582F80206C3BBFE07E92582F8A0
:100569000206E7E58229F582E5833AF5830206F971
:10057900BB0120E58229F582E5833AF583D0F0D0E5
:10058900E0F8D0E0F9D0E0FAD0E0FBE8C0E0C0F054
:100599000206DE5018E92582F8D083D082D0E0F92E
:1005A900D0E0FAD0E0FBC082C0830206CCBBFE18C3
:1005B900E92582F8D083D082D0E0F9D0E0FAD0E002
:0905C900FBC082C0830206F0228F
:100F1F00020E49E493A3F8E493A34003F68001F291
:100F2F0008DFF48029E493A3F85407240CC8C333D3
:100F3F00C4540F4420C8834004F456800146F6DFA2
:100F4F00E4800B0102040810204080901114E47E0D
:100F5F00019360BCA3FF543F30E509541FFEE49397
:100F6F00A360010ECF54C025E060A840B8E493A35E
:100F7F00FAE493A3F8E493A3C8C582C8CAC583CA89
:100F8F00F0A3C8C582C8CAC583CADFE9DEE780BE41
:01112C0000C2
:0C05D200E6FC08E6FD08E6FE08E6FF2255
:0C05DE00E0FCA3E0FDA3E0FEA3E0FF2290
:0C05EA00E2FC08E2FD08E2FE08E2FF224D
:1005F600E493FC740193FD740293FE740393FF224B
:0D060600E6FB08E6F908E6FA08E6CBF82264
:0C061300E0F8A3E0F9A3E0FAA3E0FB226A
:0D061F00E2FB08E2F908E2FA08E2CBF8225B
:10062C00E493F8740193F9740293FA740393FB2224
:0C063C00ECF608EDF608EEF608EFF622EA
:0C064800ECF0A3EDF0A3EEF0A3EFF02225
:0C065400ECF208EDF208EEF208EFF222E2
:10066000D083D082E493F608740193F60874029361
:09067000F608740393F674047398
:10067900A8828583F0D083D0821206901206901248
:100689000690120690E473E493A3C583C5F0C5836D
:10069900C8C582C8F0A3C583C5F0C583C8C582C8CB
:0106A900222E
:1006AA00D083D082E493F208740193F2087402931F
:0906BA00F208740393F274047356
:0906C300E6FB08E6FA08E6F9225C
:0906CC00EBF608EAF608E9F62253
:0906D500E0FBA3E0FAA3E0F92226
:0906DE00EBF0A3EAF0A3E9F0221D
:0906E700E2FB08E2FA08E2F92244
:0906F000EBF208EAF208E9F2223B
:0C06F900E493FB740193FA740293F9225D
:00000001FF
