:1003A7008B2A8A2B892CAB2AAA2BA92CC003C00223
:1003B700C0017B007A007908D082D083D0E06B70CF
:1003C70008E965827003EA65837006E5905401FFCA
:1003D70022AB2AAA2BA92CC003C002C0017B007A3A
:1003E700007910D082D083D0E06B7008E965827005
:0F03F70003EA65837006E5805401FF227F002230
:100226008B268A2789288D29AB26AA27A928C003C9
:10023600C002C0017B007A007910D082D083D0E062
:100246006B7008E965827003EA6583701AE5291206
:100256000106026D00026A01026D02026D030000D2
:10026600026D800363A001E52912010602AC0002BB
:10027600840102AC0202AC03000002AC8028AB266B
:10028600AA27A928C003C002C0017B007A0079080A
:10029600D082D083D0E06B7008E965827003EA658E
:0902A60083700363B0017F0022A4
:100338007B007A007908C003C002C0017BFF7A0302
:1003480079A78B1B8A1C891D7BFF7A0279268B1E55
:100358008A1F8920D001D002D0031202AF7B007A15
:10036800007910C003C002C0017BFF7A0379A78B14
:100378001B8A1C891D7BFF7A0279268B1E8A1F899E
:1003880020D001D002D0031202AF7B007A00790896
:0F0398001201747B007A00791012017480EC223C
:1002AF008B188A19891AAB1BAA1CA91DC003C0027F
:1002BF00C001AB18AA19A91A758202758300120022
:1002CF00ADAB18AA19A91AC003C002C001AB18AA76
:1002DF0019A91A75820275830012007D89828A839B
:1002EF00D001D002D003120130AB18AA19A91AEF0E
:1002FF00120049AB1EAA1FA920C003C002C001AB48
:10030F0018AA19A91A7582057583001200ADAB18CA
:10031F00AA19A91A120003FFAB18AA19A91A7582F4
:09032F0001758300EF12005B224E
:060174008B218A22892381
:10017A00AB21AA22A923C003C002C001AB21AA2233
:10018A00A92375820275830012007D89828A83D031
:10019A0001D002D0031201308F24AB21AA22A92355
:1001AA0075820175830012001CFFEFB52419AB217B
:1001BA00AA22A923120003FFE524B5070575250223
:1001CA00801C7525008017AB21AA22A923120003DF
:1001DA00FFE524B507057525038003752501AB21C5
:1001EA00AA22A923758201758300E52412005BAB5C
:1001FA0021AA22A923C003C002C001AB21AA22A9B5
:10020A002375820575830012007D89828A83D00155
:0B021A00D002D003AD25120130AF254B
:0102250022B6
:03000000020406F1
:0C040600787FE4F6D8FD75812C020338E5
:10000300BB010689828A83E0225002E722BBFE02FB
:09001300E32289828A83E493222E
:10001C00BB010CE58229F582E5833AF583E0225099
:10002C0006E92582F8E622BBFE06E92582F8E222E3
:0D003C00E58229F582E5833AF583E49322FD
:10004900BB010689828A83F0225002F722BBFE0196
:02005900F32290
:10005B00F8BB010DE58229F582E5833AF583E8F0DB
:10006B00225006E92582C8F622BBFE05E92582C887
:02007B00F2226F
:10007D00BB010DE58229F582E5833AF58302014442
:10008D005007E92582F8020132BBFE07E92582F807
:10009D00020156E58229F582E5833AF5830201686E
:1000AD00BB0120E58229F582E5833AF583D0F0D0B6
:1000BD00E0F8D0E0F9D0E0FAD0E0FBE8C0E0C0F025
:1000CD0002014D5018E92582F8D083D082D0E0F995
:1000DD00D0E0FAD0E0FBC082C08302013BBBFE182A
:1000ED00E92582F8D083D082D0E0F9D0E0FAD0E0D3
:0900FD00FBC082C08302015F22F6
:10010600D083D082F8E4937012740193700DA3A388
:1001160093F8740193F5828883E47374029368609C
:06012600EFA3A3A380DF9C
:06012C008A838982E4735E
:09013200E6FB08E6FA08E6F922F2
:09013B00EBF608EAF608E9F622E9
:09014400E0FBA3E0FAA3E0F922BC
:09014D00EBF0A3EAF0A3E9F022B3
:09015600E2FB08E2FA08E2F922DA
:09015F00EBF208EAF208E9F222D1
:0C016800E493FB740193FA740293F922F3
:00000001FF
