:020000040800F2
:100000006007002029020008AF050008A7050008C6
:10001000AB050008D90200088F08000800000000A6
:10002000000000000000000000000000250600089D
:10003000DD02000800000000E10500083D0700089F
:10004000430200084302000843020008430200087C
:10005000430200084302000843020008430200086C
:10006000430200084302000843020008430200085C
:10007000430200084302000843020008430200084C
:10008000430200084302000843020008430200083C
:10009000430200084302000843020008430200082C
:1000A000430200084302000843020008430200081C
:1000B000430200084302000843020008430200080C
:1000C00043020008430200084302000843020008FC
:1000D00043020008A9070008430200084302000881
:1000E00043020008430200084302000843020008DC
:1000F00043020008430200084302000843020008CC
:1001000043020008430200084302000843020008BB
:1001100043020008430200084302000843020008AB
:10012000430200084302000843020008430200089B
:10013000430200084302000843020008430200088B
:10014000430200084302000843020008430200087B
:10015000430200084302000843020008430200086B
:10016000430200084302000843020008430200085B
:10017000430200084302000843020008430200084B
:10018000430200084302000800F002F800F03CF8C7
:100190000AA090E8000C82448344AAF10107DA45E2
:1001A00001D100F031F8AFF2090EBAE80F0013F0F8
:1001B000010F18BFFB1A43F0010318472C09000078
:1001C0004C090000103A24BF78C878C1FAD8520709
:1001D00024BF30C830C144BF04680C6070470000C1
:1001E0000023002400250026103A28BF78C1FBD840
:1001F000520728BF30C148BF0B6070471FB500F0E1
:100200006DFC1FBD10B510BD00F033F81146FFF7AF
:10021000F5FF00F0E3FB00F051F803B4FFF7F2FF45
:1002200003BC00F036FB000009488047094800473E
:10023000FEE7FEE7FEE7FEE7FEE7FEE7FEE7FEE796
:10024000FEE7FEE704480549054A064B70470000F3
:1002500041070008890100086001002060070020B4
:1002600060030020600300207047704770477047AC
:100270007047754600F02CF8AE46050069465346B7
:1002800020F00700854618B020B5FFF7DBFFBDE87A
:1002900020404FF000064FF000074FF000084FF0ED
:1002A000000B21F00701AC46ACE8C009ACE8C0097E
:1002B000ACE8C009ACE8C0098D46704710B50446EB
:1002C000AFF300802046BDE81040FFF7A6BF000056
:1002D00000487047FC00002000BFFEE770470000A8
:1002E0001CB50121202000F089F94FF460400090F6
:1002F00001208DF8040003208DF8050000208DF802
:10030000060001208DF807006946044800F074F8E3
:100310004FF46041014800F0B9F81CBD00140240E0
:1003200038B5044600200090217A6068405CB0B97E
:10033000621C29212046E3689847621C2A21204636
:10034000E368984761782078401E814203DB2046AD
:1003500000F064F902E06078401C607038BD217ADA
:100360006068421828212046E36898470090BDF84D
:1003700000004FF6FF71884203D1207A401C2072A2
:10038000ECE7207A401C6168085C2E2812D1BDF889
:10039000000000F07F00009016A228212046E368AC
:1003A000984700F08000BDF8001008430090207AC4
:1003B000401C2072621C29212046E3689847621C79
:1003C0002A212046E36898476A462B212046E368A5
:1003D000984761782078401E814203DB204600F078
:1003E0001DF902E06078401C6070207A401C207289
:1003F00000BFB3E72E000000F0B50A46002100233D
:10040000002400BF3DE0012505FA01F3156805EA67
:1004100003049C4234D105684F000326BE40B54317
:10042000056015794E00B5400668354305601579BD
:10043000012D02D01579022D16D185684F000326B3
:10044000BE40B543856055794E00B540866835435A
:100450008560456801268E40B543456045689679BC
:100460008E40B6B235434560C5684F000326BE4096
:10047000B543C560D5794E00B540C6683543C56003
:10048000491C1029BFD3F0BD4183704701837047D9
:1004900070B506460D461446282D06D0292D08D0E5
:1004A0002A2D07D02B2D15D10BE0207800F054FA1F
:1004B00070BD11E0217801208840C04308490870D0
:1004C0000AE020780649487001230222054800F01E
:1004D00016F801E00020EBE700BF0120E8E700008C
:1004E000040000200000002070B504460D46256081
:1004F00000222B21204623689847204670BD2DE915
:10050000F04704460E46174698464FF00009012270
:100510002821204623689847002529E016F80590F1
:100520004FF0000A1FE00022282120462368984748
:1005300009F0800028B101222A212046236898472B
:1005400004E000222A212046236898474FEA4960A8
:100550004FEA1069012228212046236898470AF1B2
:10056000010000F0FF0ABAF1080FDCDB681CC5B21D
:10057000BD42D3D301222821204623689847B8F1F1
:10058000010F0ED10122292120462368984700221D
:1005900029212046236898470122292120462368E3
:1005A0009847BDE8F08700BFFEE700BFFEE7704751
:1005B0002DE9F04104460D4616461F46DDF8188029
:1005C000257066606772C4F80C800020607020722D
:1005D00000222C212046E36898472046BDE8F081A0
:1005E00070470A46002101E04B1CD9B243685B5CAE
:1005F000002BF9D143685A547047000029B1064ACC
:1006000012680243044B1A6004E0034A12688243F2
:10061000014B1A607047000030380240002101721F
:1006200041707047704700000CB5002001900090A9
:100630003448006840F480303249086000BF3148D7
:10064000006800F4003000900198401C0190009870
:1006500018B90198B0F5A04FF1D12A48006800F40C
:10066000003010B10120009001E0002000900098BF
:10067000012846D123484030006840F0805021498D
:10068000403108602048006840F440401E4908603E
:100690001C48083000681B4908310860084600689B
:1006A00040F4004008600846006840F4A05008602C
:1006B0001648091F0860081F006840F08070091F75
:1006C000086000BF0F48006800F000700028F9D0F3
:1006D00040F205700E4908600A480830006820F0B2
:1006E00003000849083108600846006840F002002D
:1006F000086000BF03480830006800F00C000828BC
:10070000F8D10CBD0038024000700040085440078A
:10071000003C0240042808D14FF0E021096941F073
:1007200004014FF0E022116107E04FF0E021096978
:1007300021F004014FF0E022116170477047000082
:1007400010B51548006840F470001349086013485C
:10075000006840F001001149086000200F4908318D
:1007600008600E4800680E4908400C4908600D48B2
:10077000091D0860081F006820F48020091F086018
:10078000002006490C310860FFF74EFF4FF0006073
:1007900001498039086010BD88ED00E00038024052
:1007A000FFFFF6FE1030002410B540F225511D4821
:1007B00000F03EF810B31B4800F064F8C4B21A48C9
:1007C000008800F40040C8B91748008800F4804051
:1007D00060B10A2C03D000201349088020E01248A1
:1007E000008840F400401049088019E00D2C06D123
:1007F0000D48008840F480400B49088010E00A480A
:100800000088C0F30D0009490C5407480088401CBB
:100810000549088008460088C72801DD00200880B7
:1008200010BD000000100140100000203400002026
:1008300070B50246002400230025002040F66A1609
:10084000B14200D100BFC1F3421501F01F030126E0
:1008500006FA03F3012D02D19689334006E0022DFA
:1008600002D1168A334001E0968A33400C120126E9
:1008700006FA04F41688344013B10CB1012000E0EC
:10088000002070BD01468888C0F30800704700BF93
:10089000FEE700BF7047000010B504466FF004008B
:1008A000FFF738FFE11704EB5171C1F3C701074AA5
:1008B00011701046007800EB4001C1EBC0104FF6FC
:1008C000FF7101EAC0000249088010BD0600002047
:1008D0000800002070B504464FF4077094FBF0F058
:1008E000C6B24FF4077094FBF0F100FB114085B2E3
:1008F00005E04FF4077000F009F8701EC6B2002E34
:10090000F7D115B1284600F001F870BD0146114A33
:1009100012884A434FF0E0235A6100229A611A4636
:10092000126942F001021A6100BF4FF0E022106923
:1009300000F001021AB100F48032002AF5D04FF025
:10094000E022126922F001024FF0E0231A61002236
:100950009A617047080000201FB501461BA41DCCFA
:100960008DE81D00084634291BD00EDC312815D037
:1009700006DC202824D02E2820D0302822D10CE0DC
:1009800032280CD033281DD10AE03538052819D279
:10099000DFE800F008090A0B0C0000BF00BF00BF31
:1009A00000BF00BF00BF00BF00BF00BFA1F130000B
:1009B0001DF80000C04380B204B010BD8020FBE7EA
:1009C0000020F9E74FF6FF70F6E70000C0F9A4B089
:1009D000999282F880908883C6A1868E86B017A0EF
:1009E0000068059016A207CA02AB07C31020FFF7E4
:1009F00053FF16491648FFF777FD0123022205A988
:100A00001348FFF77CFD13481023134A0821009078
:100A10001248FFF7CDFD002406E002A8015D0F4853
:100A2000FFF7DFFD601CC4B2092CF6D305E00B48CC
:100A3000FFF776FC0520FFF74DFFF8E7FE06000004
:100A4000332E31343135203600000000610A0008B1
:100A50000000002091040008240000201400002061
:100A600070B506460D461446282D06D0292D11D006
:100A70002A2D1CD02B2D2AD126E0012C04D1610374
:100A80001548FFF703FD04E04FF400511248FFF74B
:100A9000FBFC1EE0012C04D1A1030F48FFF7F6FC7C
:100AA00004E04FF480410C48FFF7EEFC11E0012C0C
:100AB00004D1E1030848FFF7E9FC04E04FF40041EA
:100AC0000548FFF7E1FC04E0FFF70AFC01E0002025
:100AD00070BD00BF0120FBE7001402404FF04070E2
:100AE000E1EE100A70470000080B0008000000202B
:100AF00014000000C40100081C0B000814000020B2
:100B00004C070000E00100080000000000000000A9
:0C0B1000000000000000000000000000D9
:040000050800018965
:00000001FF
